{
  "_format": "hh-sol-artifact-1",
  "contractName": "Dindr",
  "sourceName": "contracts/Dindr.sol",
  "abi": [
    {
      "anonymous": false,
      "inputs": [
        {
          "indexed": false,
          "internalType": "address",
          "name": "user",
          "type": "address"
        },
        {
          "indexed": false,
          "internalType": "string",
          "name": "name",
          "type": "string"
        }
      ],
      "name": "NewUser",
      "type": "event"
    },
    {
      "inputs": [
        {
          "internalType": "string",
          "name": "name",
          "type": "string"
        }
      ],
      "name": "register",
      "outputs": [],
      "stateMutability": "nonpayable",
      "type": "function"
    },
    {
      "inputs": [
        {
          "internalType": "address",
          "name": "",
          "type": "address"
        }
      ],
      "name": "users",
      "outputs": [
        {
          "internalType": "string",
          "name": "name",
          "type": "string"
        },
        {
          "internalType": "bool",
          "name": "isReal",
          "type": "bool"
        }
      ],
      "stateMutability": "view",
      "type": "function"
    }
  ],
  "bytecode": "0x608060405234801561001057600080fd5b5061078f806100206000396000f3fe608060405234801561001057600080fd5b50600436106100365760003560e01c8063a87430ba1461003b578063f2c298be1461006c575b600080fd5b610055600480360381019061005091906103be565b610088565b60405161006392919061049f565b60405180910390f35b61008660048036038101906100819190610604565b610141565b005b60006020528060005260406000206000915090508060000180546100ab9061067c565b80601f01602080910402602001604051908101604052809291908181526020018280546100d79061067c565b80156101245780601f106100f957610100808354040283529160200191610124565b820191906000526020600020905b81548152906001019060200180831161010757829003601f168201915b5050505050908060010160009054906101000a900460ff16905082565b600115156000803373ffffffffffffffffffffffffffffffffffffffff1673ffffffffffffffffffffffffffffffffffffffff16815260200190815260200160002060010160009054906101000a900460ff16151514156101d7576040517f08c379a00000000000000000000000000000000000000000000000000000000081526004016101ce906106fa565b60405180910390fd5b6040518060400160405280828152602001600115158152506000803373ffffffffffffffffffffffffffffffffffffffff1673ffffffffffffffffffffffffffffffffffffffff16815260200190815260200160002060008201518160000190805190602001906102499291906102a9565b5060208201518160010160006101000a81548160ff0219169083151502179055509050507ffa327e9a92777f9e2f9789db1c446a1826dabd3c4b24e2c1c9fe45914eaabbf2338260405161029e929190610729565b60405180910390a150565b8280546102b59061067c565b90600052602060002090601f0160209004810192826102d7576000855561031e565b82601f106102f057805160ff191683800117855561031e565b8280016001018555821561031e579182015b8281111561031d578251825591602001919060010190610302565b5b50905061032b919061032f565b5090565b5b80821115610348576000816000905550600101610330565b5090565b6000604051905090565b600080fd5b600080fd5b600073ffffffffffffffffffffffffffffffffffffffff82169050919050565b600061038b82610360565b9050919050565b61039b81610380565b81146103a657600080fd5b50565b6000813590506103b881610392565b92915050565b6000602082840312156103d4576103d3610356565b5b60006103e2848285016103a9565b91505092915050565b600081519050919050565b600082825260208201905092915050565b60005b8381101561042557808201518184015260208101905061040a565b83811115610434576000848401525b50505050565b6000601f19601f8301169050919050565b6000610456826103eb565b61046081856103f6565b9350610470818560208601610407565b6104798161043a565b840191505092915050565b60008115159050919050565b61049981610484565b82525050565b600060408201905081810360008301526104b9818561044b565b90506104c86020830184610490565b9392505050565b600080fd5b600080fd5b7f4e487b7100000000000000000000000000000000000000000000000000000000600052604160045260246000fd5b6105118261043a565b810181811067ffffffffffffffff821117156105305761052f6104d9565b5b80604052505050565b600061054361034c565b905061054f8282610508565b919050565b600067ffffffffffffffff82111561056f5761056e6104d9565b5b6105788261043a565b9050602081019050919050565b82818337600083830152505050565b60006105a76105a284610554565b610539565b9050828152602081018484840111156105c3576105c26104d4565b5b6105ce848285610585565b509392505050565b600082601f8301126105eb576105ea6104cf565b5b81356105fb848260208601610594565b91505092915050565b60006020828403121561061a57610619610356565b5b600082013567ffffffffffffffff8111156106385761063761035b565b5b610644848285016105d6565b91505092915050565b7f4e487b7100000000000000000000000000000000000000000000000000000000600052602260045260246000fd5b6000600282049050600182168061069457607f821691505b602082108114156106a8576106a761064d565b5b50919050565b7f596f7520616c7265616479206861766520616e206163636f756e742100000000600082015250565b60006106e4601c836103f6565b91506106ef826106ae565b602082019050919050565b60006020820190508181036000830152610713816106d7565b9050919050565b61072381610380565b82525050565b600060408201905061073e600083018561071a565b8181036020830152610750818461044b565b9050939250505056fea2646970667358221220cd4c84530a16e6e83045320c842b5e102c4ae541a8f22614e0805867b6df962164736f6c63430008090033",
  "linkReferences": {},
  "deployedLinkReferences": {}
}